{
  "_format": "hh-sol-artifact-1",
  "contractName": "AegisXLite",
  "sourceName": "contracts/AegisXLite.sol",
  "abi": [
    {
      "anonymous": false,
      "inputs": [
        {
          "indexed": false,
          "internalType": "string",
          "name": "txId",
          "type": "string"
        },
        {
          "indexed": false,
          "internalType": "uint256",
          "name": "riskScore",
          "type": "uint256"
        },
        {
          "indexed": false,
          "internalType": "bool",
          "name": "flagged",
          "type": "bool"
        }
      ],
      "name": "TransactionLogged",
      "type": "event"
    },
    {
      "inputs": [
        {
          "internalType": "string",
          "name": "_txId",
          "type": "string"
        },
        {
          "internalType": "uint256",
          "name": "_riskScore",
          "type": "uint256"
        },
        {
          "internalType": "bool",
          "name": "_flagged",
          "type": "bool"
        }
      ],
      "name": "logTransaction",
      "outputs": [],
      "stateMutability": "nonpayable",
      "type": "function"
    },
    {
      "inputs": [
        {
          "internalType": "string",
          "name": "_txId",
          "type": "string"
        }
      ],
      "name": "verifyTransaction",
      "outputs": [
        {
          "internalType": "uint256",
          "name": "",
          "type": "uint256"
        },
        {
          "internalType": "bool",
          "name": "",
          "type": "bool"
        }
      ],
      "stateMutability": "view",
      "type": "function"
    }
  ],
  "bytecode": "0x6080604052348015600f57600080fd5b506103598061001f6000396000f3fe608060405234801561001057600080fd5b50600436106100365760003560e01c80636f37ce431461003b5780638e6eb74014610067575b600080fd5b61004e610049366004610204565b61007c565b6040805192835290151560208301520160405180910390f35b61007a610075366004610241565b6100cc565b005b60008060008360405161008f91906102c5565b9081526020016040518091039020546001846040516100ae91906102c5565b90815260405190819003602001902054909460ff9091169350915050565b816000846040516100dd91906102c5565b9081526020016040518091039020819055508060018460405161010091906102c5565b908152604051908190036020018120805492151560ff19909316929092179091557fc4c21f2888610575efce345bb33b698cb6994b2e6f486837dd6c6670a493357190610152908590859085906102e1565b60405180910390a1505050565b634e487b7160e01b600052604160045260246000fd5b600082601f83011261018657600080fd5b813567ffffffffffffffff8111156101a0576101a061015f565b604051601f8201601f19908116603f0116810167ffffffffffffffff811182821017156101cf576101cf61015f565b6040528181528382016020018510156101e757600080fd5b816020850160208301376000918101602001919091529392505050565b60006020828403121561021657600080fd5b813567ffffffffffffffff81111561022d57600080fd5b61023984828501610175565b949350505050565b60008060006060848603121561025657600080fd5b833567ffffffffffffffff81111561026d57600080fd5b61027986828701610175565b935050602084013591506040840135801515811461029657600080fd5b809150509250925092565b60005b838110156102bc5781810151838201526020016102a4565b50506000910152565b600082516102d78184602087016102a1565b9190910192915050565b60608152600084518060608401526103008160808501602089016102a1565b60208301949094525090151560408201526080601f909201601f1916010191905056fea2646970667358221220073eff2a6fc9531e529ef98afd3f2ddad79617c20bae3f2d4296fdf41d7b450164736f6c634300081c0033",
  "linkReferences": {},
  "deployedLinkReferences": {}
}