{
  "_format": "hh-sol-artifact-1",
  "contractName": "AegisX",
  "sourceName": "contracts/AegisX.sol",
  "abi": [
    {
      "anonymous": false,
      "inputs": [
        {
          "indexed": false,
          "internalType": "string",
          "name": "txId",
          "type": "string"
        },
        {
          "indexed": false,
          "internalType": "uint256",
          "name": "riskScore",
          "type": "uint256"
        },
        {
          "indexed": false,
          "internalType": "bool",
          "name": "flagged",
          "type": "bool"
        }
      ],
      "name": "TransactionLogged",
      "type": "event"
    },
    {
      "inputs": [
        {
          "internalType": "string[]",
          "name": "_txIds",
          "type": "string[]"
        },
        {
          "internalType": "uint256[]",
          "name": "_riskScores",
          "type": "uint256[]"
        },
        {
          "internalType": "bool[]",
          "name": "_flagged",
          "type": "bool[]"
        }
      ],
      "name": "batchLogTransactions",
      "outputs": [],
      "stateMutability": "nonpayable",
      "type": "function"
    },
    {
      "inputs": [
        {
          "internalType": "string",
          "name": "_txId",
          "type": "string"
        },
        {
          "internalType": "uint256",
          "name": "_riskScore",
          "type": "uint256"
        },
        {
          "internalType": "bool",
          "name": "_flagged",
          "type": "bool"
        }
      ],
      "name": "logTransaction",
      "outputs": [],
      "stateMutability": "nonpayable",
      "type": "function"
    },
    {
      "inputs": [
        {
          "internalType": "string",
          "name": "_txId",
          "type": "string"
        },
        {
          "internalType": "uint256",
          "name": "_newRiskScore",
          "type": "uint256"
        },
        {
          "internalType": "bool",
          "name": "_newFlagStatus",
          "type": "bool"
        }
      ],
      "name": "updateRiskAssessment",
      "outputs": [],
      "stateMutability": "nonpayable",
      "type": "function"
    },
    {
      "inputs": [
        {
          "internalType": "string",
          "name": "_txId",
          "type": "string"
        }
      ],
      "name": "verifyTransaction",
      "outputs": [
        {
          "internalType": "uint256",
          "name": "",
          "type": "uint256"
        },
        {
          "internalType": "bool",
          "name": "",
          "type": "bool"
        }
      ],
      "stateMutability": "view",
      "type": "function"
    }
  ],
  "bytecode": "0x6080604052348015600f57600080fd5b506109a88061001f6000396000f3fe608060405234801561001057600080fd5b506004361061004c5760003560e01c80634e742f97146100515780636f37ce43146100665780638e6eb74014610092578063a0961137146100a5575b600080fd5b61006461005f3660046104fa565b6100b8565b005b610079610074366004610551565b6101d0565b6040805192835290151560208301520160405180910390f35b6100646100a03660046104fa565b6102bf565b6100646100b3366004610684565b610360565b600080846040516100c991906107b6565b90815260405190819003602001902080546100e3906107d2565b9050116101375760405162461bcd60e51b815260206004820152601a60248201527f5472616e73616374696f6e20646f6573206e6f7420657869737400000000000060448201526064015b60405180910390fd5b8160008460405161014891906107b6565b9081526020016040518091039020600101819055508060008460405161016e91906107b6565b908152604051908190036020018120600201805492151560ff19909316929092179091557fc4c21f2888610575efce345bb33b698cb6994b2e6f486837dd6c6670a4933571906101c39085908590859061080c565b60405180910390a1505050565b600080600080846040516101e491906107b6565b908152602001604051809103902060405180606001604052908160008201805461020d906107d2565b80601f0160208091040260200160405190810160405280929190818152602001828054610239906107d2565b80156102865780601f1061025b57610100808354040283529160200191610286565b820191906000526020600020905b81548152906001019060200180831161026957829003601f168201915b5050509183525050600182015460208083019190915260029092015460ff16151560409182015290820151910151909590945092505050565b60405180606001604052808481526020018381526020018215158152506000846040516102ec91906107b6565b90815260405190819003602001902081518190610309908261089d565b50602082015160018201556040918201516002909101805460ff1916911515919091179055517fc4c21f2888610575efce345bb33b698cb6994b2e6f486837dd6c6670a4933571906101c39085908590859061080c565b81518351148015610372575080518251145b6103be5760405162461bcd60e51b815260206004820152601e60248201527f417272617973206d757374206265206f6620657175616c206c656e6774680000604482015260640161012e565b60005b8351811015610428576104208482815181106103df576103df61095c565b60200260200101518483815181106103f9576103f961095c565b60200260200101518484815181106104135761041361095c565b60200260200101516102bf565b6001016103c1565b50505050565b634e487b7160e01b600052604160045260246000fd5b604051601f8201601f1916810167ffffffffffffffff8111828210171561046d5761046d61042e565b604052919050565b600082601f83011261048657600080fd5b813567ffffffffffffffff8111156104a0576104a061042e565b6104b3601f8201601f1916602001610444565b8181528460208386010111156104c857600080fd5b816020850160208301376000918101602001919091529392505050565b803580151581146104f557600080fd5b919050565b60008060006060848603121561050f57600080fd5b833567ffffffffffffffff81111561052657600080fd5b61053286828701610475565b93505060208401359150610548604085016104e5565b90509250925092565b60006020828403121561056357600080fd5b813567ffffffffffffffff81111561057a57600080fd5b61058684828501610475565b949350505050565b600067ffffffffffffffff8211156105a8576105a861042e565b5060051b60200190565b600082601f8301126105c357600080fd5b81356105d66105d18261058e565b610444565b8082825260208201915060208360051b8601019250858311156105f857600080fd5b602085015b838110156106155780358352602092830192016105fd565b5095945050505050565b600082601f83011261063057600080fd5b813561063e6105d18261058e565b8082825260208201915060208360051b86010192508583111561066057600080fd5b602085015b8381101561061557610676816104e5565b835260209283019201610665565b60008060006060848603121561069957600080fd5b833567ffffffffffffffff8111156106b057600080fd5b8401601f810186136106c157600080fd5b80356106cf6105d18261058e565b8082825260208201915060208360051b8501019250888311156106f157600080fd5b602084015b8381101561073357803567ffffffffffffffff81111561071557600080fd5b6107248b602083890101610475565b845250602092830192016106f6565b509550505050602084013567ffffffffffffffff81111561075357600080fd5b61075f868287016105b2565b925050604084013567ffffffffffffffff81111561077c57600080fd5b6107888682870161061f565b9150509250925092565b60005b838110156107ad578181015183820152602001610795565b50506000910152565b600082516107c8818460208701610792565b9190910192915050565b600181811c908216806107e657607f821691505b60208210810361080657634e487b7160e01b600052602260045260246000fd5b50919050565b606081526000845180606084015261082b816080850160208901610792565b60208301949094525090151560408201526080601f909201601f19160101919050565b601f82111561089857806000526020600020601f840160051c810160208510156108755750805b601f840160051c820191505b818110156108955760008155600101610881565b50505b505050565b815167ffffffffffffffff8111156108b7576108b761042e565b6108cb816108c584546107d2565b8461084e565b6020601f8211600181146108ff57600083156108e75750848201515b600019600385901b1c1916600184901b178455610895565b600084815260208120601f198516915b8281101561092f578785015182556020948501946001909201910161090f565b508482101561094d5786840151600019600387901b60f8161c191681555b50505050600190811b01905550565b634e487b7160e01b600052603260045260246000fdfea264697066735822122010a33729c2b98f61fceb4706e89c9868701efee0db6572d3084911b5e06f446564736f6c634300081c0033",
  "linkReferences": {},
  "deployedLinkReferences": {}
}